{
  "address": "0x3E1Fe1Bd5a5560972bFa2D393b9aC18aF279fF56",
  "abi": [
    {
      "inputs": [
        {
          "internalType": "address",
          "name": "limitOrderProtocol",
          "type": "address"
        },
        {
          "internalType": "contract IERC20",
          "name": "accessToken",
          "type": "address"
        },
        {
          "internalType": "address",
          "name": "weth",
          "type": "address"
        },
        {
          "internalType": "address",
          "name": "owner",
          "type": "address"
        }
      ],
      "stateMutability": "nonpayable",
      "type": "constructor"
    },
    {
      "inputs": [],
      "name": "AllowedTimeViolation",
      "type": "error"
    },
    {
      "inputs": [],
      "name": "ETHTransferFailed",
      "type": "error"
    },
    {
      "inputs": [],
      "name": "EthTransferFailed",
      "type": "error"
    },
    {
      "inputs": [],
      "name": "InconsistentFee",
      "type": "error"
    },
    {
      "inputs": [],
      "name": "InsufficientBalance",
      "type": "error"
    },
    {
      "inputs": [],
      "name": "InvalidIntegratorFee",
      "type": "error"
    },
    {
      "inputs": [],
      "name": "InvalidIntegratorShare",
      "type": "error"
    },
    {
      "inputs": [],
      "name": "InvalidResolverFee",
      "type": "error"
    },
    {
      "inputs": [],
      "name": "InvalidWhitelistDiscountNumerator",
      "type": "error"
    },
    {
      "inputs": [],
      "name": "OnlyLimitOrderProtocol",
      "type": "error"
    },
    {
      "inputs": [],
      "name": "OnlyWhitelistOrAccessToken",
      "type": "error"
    },
    {
      "inputs": [
        {
          "internalType": "address",
          "name": "owner",
          "type": "address"
        }
      ],
      "name": "OwnableInvalidOwner",
      "type": "error"
    },
    {
      "inputs": [
        {
          "internalType": "address",
          "name": "account",
          "type": "address"
        }
      ],
      "name": "OwnableUnauthorizedAccount",
      "type": "error"
    },
    {
      "inputs": [],
      "name": "SafeTransferFailed",
      "type": "error"
    },
    {
      "anonymous": false,
      "inputs": [
        {
          "indexed": true,
          "internalType": "address",
          "name": "previousOwner",
          "type": "address"
        },
        {
          "indexed": true,
          "internalType": "address",
          "name": "newOwner",
          "type": "address"
        }
      ],
      "name": "OwnershipTransferred",
      "type": "event"
    },
    {
      "inputs": [
        {
          "components": [
            {
              "internalType": "uint256",
              "name": "salt",
              "type": "uint256"
            },
            {
              "internalType": "Address",
              "name": "maker",
              "type": "uint256"
            },
            {
              "internalType": "Address",
              "name": "receiver",
              "type": "uint256"
            },
            {
              "internalType": "Address",
              "name": "makerAsset",
              "type": "uint256"
            },
            {
              "internalType": "Address",
              "name": "takerAsset",
              "type": "uint256"
            },
            {
              "internalType": "uint256",
              "name": "makingAmount",
              "type": "uint256"
            },
            {
              "internalType": "uint256",
              "name": "takingAmount",
              "type": "uint256"
            },
            {
              "internalType": "MakerTraits",
              "name": "makerTraits",
              "type": "uint256"
            }
          ],
          "internalType": "struct IOrderMixin.Order",
          "name": "order",
          "type": "tuple"
        },
        {
          "internalType": "bytes",
          "name": "extension",
          "type": "bytes"
        },
        {
          "internalType": "bytes32",
          "name": "orderHash",
          "type": "bytes32"
        },
        {
          "internalType": "address",
          "name": "taker",
          "type": "address"
        },
        {
          "internalType": "uint256",
          "name": "takingAmount",
          "type": "uint256"
        },
        {
          "internalType": "uint256",
          "name": "remainingMakingAmount",
          "type": "uint256"
        },
        {
          "internalType": "bytes",
          "name": "extraData",
          "type": "bytes"
        }
      ],
      "name": "getMakingAmount",
      "outputs": [
        {
          "internalType": "uint256",
          "name": "",
          "type": "uint256"
        }
      ],
      "stateMutability": "view",
      "type": "function"
    },
    {
      "inputs": [
        {
          "components": [
            {
              "internalType": "uint256",
              "name": "salt",
              "type": "uint256"
            },
            {
              "internalType": "Address",
              "name": "maker",
              "type": "uint256"
            },
            {
              "internalType": "Address",
              "name": "receiver",
              "type": "uint256"
            },
            {
              "internalType": "Address",
              "name": "makerAsset",
              "type": "uint256"
            },
            {
              "internalType": "Address",
              "name": "takerAsset",
              "type": "uint256"
            },
            {
              "internalType": "uint256",
              "name": "makingAmount",
              "type": "uint256"
            },
            {
              "internalType": "uint256",
              "name": "takingAmount",
              "type": "uint256"
            },
            {
              "internalType": "MakerTraits",
              "name": "makerTraits",
              "type": "uint256"
            }
          ],
          "internalType": "struct IOrderMixin.Order",
          "name": "order",
          "type": "tuple"
        },
        {
          "internalType": "bytes",
          "name": "extension",
          "type": "bytes"
        },
        {
          "internalType": "bytes32",
          "name": "orderHash",
          "type": "bytes32"
        },
        {
          "internalType": "address",
          "name": "taker",
          "type": "address"
        },
        {
          "internalType": "uint256",
          "name": "makingAmount",
          "type": "uint256"
        },
        {
          "internalType": "uint256",
          "name": "remainingMakingAmount",
          "type": "uint256"
        },
        {
          "internalType": "bytes",
          "name": "extraData",
          "type": "bytes"
        }
      ],
      "name": "getTakingAmount",
      "outputs": [
        {
          "internalType": "uint256",
          "name": "",
          "type": "uint256"
        }
      ],
      "stateMutability": "view",
      "type": "function"
    },
    {
      "inputs": [],
      "name": "owner",
      "outputs": [
        {
          "internalType": "address",
          "name": "",
          "type": "address"
        }
      ],
      "stateMutability": "view",
      "type": "function"
    },
    {
      "inputs": [
        {
          "components": [
            {
              "internalType": "uint256",
              "name": "salt",
              "type": "uint256"
            },
            {
              "internalType": "Address",
              "name": "maker",
              "type": "uint256"
            },
            {
              "internalType": "Address",
              "name": "receiver",
              "type": "uint256"
            },
            {
              "internalType": "Address",
              "name": "makerAsset",
              "type": "uint256"
            },
            {
              "internalType": "Address",
              "name": "takerAsset",
              "type": "uint256"
            },
            {
              "internalType": "uint256",
              "name": "makingAmount",
              "type": "uint256"
            },
            {
              "internalType": "uint256",
              "name": "takingAmount",
              "type": "uint256"
            },
            {
              "internalType": "MakerTraits",
              "name": "makerTraits",
              "type": "uint256"
            }
          ],
          "internalType": "struct IOrderMixin.Order",
          "name": "order",
          "type": "tuple"
        },
        {
          "internalType": "bytes",
          "name": "extension",
          "type": "bytes"
        },
        {
          "internalType": "bytes32",
          "name": "orderHash",
          "type": "bytes32"
        },
        {
          "internalType": "address",
          "name": "taker",
          "type": "address"
        },
        {
          "internalType": "uint256",
          "name": "makingAmount",
          "type": "uint256"
        },
        {
          "internalType": "uint256",
          "name": "takingAmount",
          "type": "uint256"
        },
        {
          "internalType": "uint256",
          "name": "remainingMakingAmount",
          "type": "uint256"
        },
        {
          "internalType": "bytes",
          "name": "extraData",
          "type": "bytes"
        }
      ],
      "name": "postInteraction",
      "outputs": [],
      "stateMutability": "nonpayable",
      "type": "function"
    },
    {
      "inputs": [],
      "name": "renounceOwnership",
      "outputs": [],
      "stateMutability": "nonpayable",
      "type": "function"
    },
    {
      "inputs": [
        {
          "internalType": "contract IERC20",
          "name": "token",
          "type": "address"
        },
        {
          "internalType": "uint256",
          "name": "amount",
          "type": "uint256"
        }
      ],
      "name": "rescueFunds",
      "outputs": [],
      "stateMutability": "nonpayable",
      "type": "function"
    },
    {
      "inputs": [
        {
          "internalType": "address",
          "name": "newOwner",
          "type": "address"
        }
      ],
      "name": "transferOwnership",
      "outputs": [],
      "stateMutability": "nonpayable",
      "type": "function"
    },
    {
      "stateMutability": "payable",
      "type": "receive"
    }
  ],
  "transactionHash": "0xf49a1d1e3c296e373f77600c40864b15896e16179edb32dd622455fa173eb5d8",
  "args": [
    "0x111111125421ca6dc452d289314280a0f8842a65",
    "0xAccE550000863572B867E661647CD7D97b72C507",
    "0x4200000000000000000000000000000000000006",
    "0x56E44874F624EbDE6efCc783eFD685f0FBDC6dcF"
  ],
  "numDeployments": 1,
  "solcInputHash": "114a13c7c50ad44e340da0a72699cce3",
  "bytecode": "0x60e0346200011157601f62001ed038819003918201601f19168301916001600160401b03831184841017620001155780849260809460405283398101031262000111576200004d8162000129565b60208201516001600160a01b0392909183831683036200011157836200008460606200007c6040860162000129565b940162000129565b168015620000f9575f80546001600160a01b03198116831782556040519616907f8be0079c531659141344cd1fd0a4f28419497f9722a3daafe3b4186f6b6457e09080a360805260a05260c052611d9190816200013f8239608051816104da015260a05181610738015260c05181610ac20152f35b604051631e4fbdf760e01b81525f6004820152602490fd5b5f80fd5b634e487b7160e01b5f52604160045260245ffd5b51906001600160a01b0382168203620001115756fe6080604052600436101561001a575b3615610018575f80fd5b005b5f803560e01c80631d9671c314610cc9578063462ebde214610422578063715018a61461038657806378e3214f146102625780638da5cb5b14610211578063d7ff8a801461015a5763f2fde38b14610072575061000e565b346101575760207ffffffffffffffffffffffffffffffffffffffffffffffffffffffffffffffffc3601126101575760043573ffffffffffffffffffffffffffffffffffffffff808216809203610153576100cb610f1f565b8115610122575f54827fffffffffffffffffffffffff00000000000000000000000000000000000000008216175f55167f8be0079c531659141344cd1fd0a4f28419497f9722a3daafe3b4186f6b6457e05f80a380f35b602483604051907f1e4fbdf70000000000000000000000000000000000000000000000000000000082526004820152fd5b5f80fd5b80fd5b50346101575761019d6101ba61018661018f61017536610d8d565b849c98999295979a91949394611003565b909c919c611714565b99945097929b915099611c9c565b91620186a0910181016101b081846112c1565b9209151590610e37565b9162989680918201908183116101e45760206101dc8585856101b0818461134a565b604051908152f35b807f4e487b7100000000000000000000000000000000000000000000000000000000602492526011600452fd5b503461015757807ffffffffffffffffffffffffffffffffffffffffffffffffffffffffffffffffc3601126101575773ffffffffffffffffffffffffffffffffffffffff6020915416604051908152f35b50346101575760407ffffffffffffffffffffffffffffffffffffffffffffffffffffffffffffffffc3601126101575760043573ffffffffffffffffffffffffffffffffffffffff81169081810361038257602435916102c0610f1f565b826102c9578380f35b8015908115610364575b50156103535750804710610329578180808093335af16102f1610f6f565b50156102ff575b5f80808380f35b60046040517fb12d13eb000000000000000000000000000000000000000000000000000000008152fd5b60046040517ff4d678b8000000000000000000000000000000000000000000000000000000008152fd5b9061035f913390611843565b6102f8565b73eeeeeeeeeeeeeeeeeeeeeeeeeeeeeeeeeeeeeeee9150145f6102d3565b8280fd5b503461015757807ffffffffffffffffffffffffffffffffffffffffffffffffffffffffffffffffc360112610157576103bd610f1f565b5f73ffffffffffffffffffffffffffffffffffffffff81547fffffffffffffffffffffffff000000000000000000000000000000000000000081168355167f8be0079c531659141344cd1fd0a4f28419497f9722a3daafe3b4186f6b6457e08280a380f35b5034610153577ffffffffffffffffffffffffffffffffffffffffffffffffffffffffffffffffc36016101e081126101535761010013610153576101043567ffffffffffffffff81116101535761047d903690600401610d5f565b73ffffffffffffffffffffffffffffffffffffffff610144351661014435036101535767ffffffffffffffff6101c43511610153576104c2366101c435600401610d5f565b9273ffffffffffffffffffffffffffffffffffffffff7f0000000000000000000000000000000000000000000000000000000000000000163303610c9f578315610c72578360151161015357836029116101535760298201917fffffffffffffffffffffffffffffffffffffffffffffffffffffffffffffffd785019473ffffffffffffffffffffffffffffffffffffffff60243516907f01000000000000000000000000000000000000000000000000000000000000008084351614610be0575b5061058f8685611465565b60f01c93620186a08511610bb65786600211610153576105d47ffffffffffffffffffffffffffffffffffffffffffffffffffffffffffffffffe8801600283016116d0565b60f81c60648111610b8c5787600311610153576106167ffffffffffffffffffffffffffffffffffffffffffffffffffffffffffffffffd890160038401611465565b60f01c91620186a08311610b6257886005116101535761065b7ffffffffffffffffffffffffffffffffffffffffffffffffffffffffffffffffb8a01600583016116d0565b60f81c9860648a11610b385780600611610153576106a39160067ffffffffffffffffffffffffffffffffffffffffffffffffffffffffffffffffa61014435930191016114a9565b9982919892610b2b575b501580610a5f575b610a3557806106dd6106d6620186a0866106e79501018093610184356113d3565b938461122a565b93610184356113d3565b019260443573ffffffffffffffffffffffffffffffffffffffff1630036109ff5773ffffffffffffffffffffffffffffffffffffffff6084351673ffffffffffffffffffffffffffffffffffffffff7f0000000000000000000000000000000000000000000000000000000000000000168114806109d3575b15610977575061078993829182610961575b828203610947575b500390610184350303906118db565b6014841015610796578480f35b6107a08483610e5c565b60601c908460141161015357813b15610153575f80946108de7fffffffffffffffffffffffffffffffffffffffffffffffffffffffffffffffec976108629660146040519a8b998a9889977f462ebde200000000000000000000000000000000000000000000000000000000895260043560048a015260243560248a015260443560448a015260643560648a015260843560848a015260a43560a48a015260c43560c48a015260e43560e48a01526101e06101048a01526101e4890191610ee1565b936101243561012488015273ffffffffffffffffffffffffffffffffffffffff610144351661014488015261016435610164880152610184356101848801526101a4356101a48801527ffffffffffffffffffffffffffffffffffffffffffffffffffffffffffffffffc878603016101c4880152019101610ee1565b03925af1801561093c576108f4575b8080808480f35b905067ffffffffffffffff811161090f576040525f806108ed565b7f4e487b71000000000000000000000000000000000000000000000000000000005f52604160045260245ffd5b6040513d5f823e3d90fd5b61095b90601584840391013560601c6118db565b5f61077a565b61097283600183013560601c6118db565b610772565b929161099c948192826109bc575b8282036109a1575b50039061018435030391611843565b610789565b6109b690601584840391013560601c87611843565b5f61098d565b6109ce83600183013560601c88611843565b610985565b507e8000000000000000000000000000000000000000000000000000000000000060e435161515610760565b50918291500301156107895760046040517f679a57eb000000000000000000000000000000000000000000000000000000008152fd5b60046040517f0155201f000000000000000000000000000000000000000000000000000000008152fd5b506040517f70a0823100000000000000000000000000000000000000000000000000000000815273ffffffffffffffffffffffffffffffffffffffff6101443516600482015260208160248173ffffffffffffffffffffffffffffffffffffffff7f0000000000000000000000000000000000000000000000000000000000000000165afa90811561093c575f91610af9575b50156106b5565b90506020813d602011610b23575b81610b1460209383610ea0565b8101031261015357515f610af2565b3d9150610b07565b606491940204925f6106ad565b60046040517f3066a1f1000000000000000000000000000000000000000000000000000000008152fd5b60046040517ffb58f5bc000000000000000000000000000000000000000000000000000000008152fd5b60046040517fc5374e2d000000000000000000000000000000000000000000000000000000008152fd5b60046040517fe631e45d000000000000000000000000000000000000000000000000000000008152fd5b610c169296508094507fffffffffffffffffffffffffffffffffffffffffffffffffffffffffffffffd791500160298601610e5c565b60601c937fffffffffffffffffffffffffffffffffffffffffffffffffffffffffffffffd78301601411610153577fffffffffffffffffffffffffffffffffffffffffffffffffffffffffffffffc3603d82019301945f610584565b7f4e487b71000000000000000000000000000000000000000000000000000000005f52603260045260245ffd5b60046040517fd25aa106000000000000000000000000000000000000000000000000000000008152fd5b3461015357610d0f610d18610cf8620186a0610d01610ce736610d8d565b849d98999295979b91949394611003565b909d919d611714565b99945097929c915099611bae565b920101906110d4565b62989680918201809211610d32576020916101dc91611193565b7f4e487b71000000000000000000000000000000000000000000000000000000005f52601160045260245ffd5b9181601f840112156101535782359167ffffffffffffffff8311610153576020838186019501011161015357565b907ffffffffffffffffffffffffffffffffffffffffffffffffffffffffffffffffc82016101c0811261015357610100136101535760049167ffffffffffffffff90610104358281116101535781610de791600401610d5f565b9390939261012435926101443573ffffffffffffffffffffffffffffffffffffffff811681036101535792610164359261018435926101a43591821161015357610e3391600401610d5f565b9091565b91908201809211610d3257565b90939293848311610153578411610153578101920390565b7fffffffffffffffffffffffffffffffffffffffff0000000000000000000000009035818116939260148110610e9157505050565b60140360031b82901b16169150565b90601f7fffffffffffffffffffffffffffffffffffffffffffffffffffffffffffffffe0910116810190811067ffffffffffffffff82111761090f57604052565b601f82602094937fffffffffffffffffffffffffffffffffffffffffffffffffffffffffffffffe093818652868601375f8582860101520116010190565b73ffffffffffffffffffffffffffffffffffffffff5f54163303610f3f57565b60246040517f118cdaa7000000000000000000000000000000000000000000000000000000008152336004820152fd5b3d15610fc7573d9067ffffffffffffffff821161090f5760405191610fbc60207fffffffffffffffffffffffffffffffffffffffffffffffffffffffffffffffe0601f8401160184610ea0565b82523d5f602084013e565b606090565b8115610fd6570490565b7f4e487b71000000000000000000000000000000000000000000000000000000005f52601260045260245ffd5b91908060031161015357823560e81c8160071161015357600384013560e01c90801580156110cc575b156110b55750505f925b81600b1161015357600781013560e01c82600e116101535782601111610153577fffffffffffffffffffffffffffffffffffffffffffffffffffffffffffffffef61109a9301916011810191600b600e83013560e81c92013560e81c81019061191d565b9093909291818111156110ad5703929190565b50505f929190565b620f4240916110c5914802610fcc565b0492611036565b50811561102c565b90620186a090818302917fffffffffffffffffffffffffffffffffffffffffffffffffffffffffffffffff81850993838086109503948086039514611183578483111561116b5790829109815f038216809204600280826003021880830282030280830282030280830282030280830282030280830282030280920290030293600183805f03040190848311900302920304170290565b82634e487b715f52156003026011186020526024601cfd5b5050906111909250610fcc565b90565b906298968090818302917fffffffffffffffffffffffffffffffffffffffffffffffffffffffffffffffff81850993838086109503948086039514611183578483111561116b5790829109815f038216809204600280826003021880830282030280830282030280830282030280830282030280830282030280920290030293600183805f03040190848311900302920304170290565b818102907fffffffffffffffffffffffffffffffffffffffffffffffffffffffffffffffff838209908280831092039180830392146112b75781606411156112a5577f5c28f5c28f5c28f5c28f5c28f5c28f5c28f5c28f5c28f5c28f5c28f5c28f5c29936064910990828211900360fe1b910360021c170290565b634e487b715f5260116020526024601cfd5b5050606491500490565b90808202907fffffffffffffffffffffffffffffffffffffffffffffffffffffffffffffffff8184099082808310920391808303921461133e57620186a090828211156112a5577f58cd20afa2f05a708ede54b48d3ae685db76b3bb83cf2cf95d4e8fb00bcbe61d940990828211900360fb1b910360051c170290565b5050620186a091500490565b90808202907fffffffffffffffffffffffffffffffffffffffffffffffffffffffffffffffff818409908280831092039180830392146113c7576298968090828211156112a5577f5fb648fcc913daa857a27e44a97d3c6bc1193a63a91cc45be5032477ae8d46a5940990828211900360f91b910360071c170290565b50506298968091500490565b91818302917fffffffffffffffffffffffffffffffffffffffffffffffffffffffffffffffff81850993838086109503948086039514611183578483111561116b5790829109815f038216809204600280826003021880830282030280830282030280830282030280830282030280830282030280920290030293600183805f03040190848311900302920304170290565b7fffff000000000000000000000000000000000000000000000000000000000000903581811693926002811061149a57505050565b60020360031b82901b16169150565b919269ffffffffffffffffffff5f9416918335907fffffffff00000000000000000000000000000000000000000000000000000000808316906004938484106116bc575b505060e01c9080831015611690578286013560f81c600c9181600c02908160050190816005116101535780821161015357611532918160058c9796959701969b610e44565b989098975f905b83821061157757505050505050421061154f5750565b6040517f9da6e025000000000000000000000000000000000000000000000000000000008152fd5b9091929394955f9b9a9998979b5086357fffffffffffffffffffff0000000000000000000000000000000000000000000080821690600a9283881061167c575b50508242105f146115eb578d6040517f9da6e025000000000000000000000000000000000000000000000000000000008152fd5b60b09d999a9b9c9d1c831461166d5784811161015357611630907ffffffffffffffffffffffffffffffffffffffffffffffffffffffffffffffff68601908901611465565b60f01c01958386116101535785019493927ffffffffffffffffffffffffffffffffffffffffffffffffffffffffffffffff4019160010190611539565b5060019b505050505050505050565b9080925087840360031b1b16165f806115b7565b6032837f4e487b71000000000000000000000000000000000000000000000000000000005f525260245ffd5b9080925083850360031b1b16165f806114ed565b7fff00000000000000000000000000000000000000000000000000000000000000903581811693926001811061170557505050565b60010360031b82901b16169150565b91906117208184611465565b60f01c92620186a091828511610bb65780600211610153576117677ffffffffffffffffffffffffffffffffffffffffffffffffffffffffffffffffe8201600284016116d0565b60f81c9360648511610b8c5781600311610153576117aa7ffffffffffffffffffffffffffffffffffffffffffffffffffffffffffffffffd830160038501611465565b60f01c938411610b625781600511610153576117eb7ffffffffffffffffffffffffffffffffffffffffffffffffffffffffffffffffb8301600585016116d0565b60f81c9260648411610b3857826006116101535760067ffffffffffffffffffffffffffffffffffffffffffffffffffffffffffffffffa61182e94019101611a55565b919690928761183a5750565b60649194020492565b9160446020925f92604051917fa9059cbb0000000000000000000000000000000000000000000000000000000083526004830152602482015282855af190816118b9575b501561188f57565b60046040517ffb7f5079000000000000000000000000000000000000000000000000000000008152fd5b90503d156118d3575060015f5114601f3d11165b5f611887565b3b15156118cd565b5f80809381935af16118eb610f6f565b50156118f357565b60046040517f6d963f88000000000000000000000000000000000000000000000000000000008152fd5b94929082868615610c7257833560f81c6001948860011161015357600101977fffffffffffffffffffffffffffffffffffffffffffffffffffffffffffffffff01600561196e82848302818d610e44565b909b909a904211611986575050505050505050929190565b90919293949580979a999850421015611a48579291905f915b8383106119c35750505050506119be9394955082039142900302610fcc565b929190565b909192939460039082821161015357863560e81c918385116101535787013560f01c81019788421115611a255750909695830194938b0192917ffffffffffffffffffffffffffffffffffffffffffffffffffffffffffffffffb01905061199f565b955096975094505050506119be9495965082840393429003029142030201610fcc565b505f999850505050505050565b919269ffffffffffffffffffff5f9416918015610c7257833560f81c600a9481600a029560019387600101908160011161015357808211610153576001840193611aa192908290610e44565b979097965f935b858510611ab85750505050505050565b82841161015357803560b01c8214611afa577ffffffffffffffffffffffffffffffffffffffffffffffffffffffffffffffff684889201930194019391611aa8565b509498505050505050565b949073ffffffffffffffffffffffffffffffffffffffff926111909a9895999794611b869260e06101c09180358b52602081013560208c0152604081013560408c0152606081013560608c0152608081013560808c015260a081013560a08c015260c081013560c08c0152013560e08a0152806101008a0152880191610ee1565b97610120860152166101408401526101608301526101808201526101a0818503910152610ee1565b9097949693959492939060148410611c8057611bca8483610e5c565b60601c9584601411610153576020986014987fffffffffffffffffffffffffffffffffffffffffffffffffffffffffffffffec97611c3c966040519d8e9c8d9b8c9b7f1d9671c3000000000000000000000000000000000000000000000000000000008d520198019660048b01611b05565b03915afa90811561093c575f91611c51575090565b90506020813d602011611c78575b81611c6c60209383610ea0565b81010312610153575190565b3d9150611c5f565b9695505050505050611190925060a060c08301359201356113d3565b9097949693959492939060148410611d2a57611cb88483610e5c565b60601c9584601411610153576020986014987fffffffffffffffffffffffffffffffffffffffffffffffffffffffffffffffec97611c3c966040519d8e9c8d9b8c9b7fd7ff8a80000000000000000000000000000000000000000000000000000000008d520198019660048b01611b05565b975050505050505060a060c0830135920135611d478183856113d3565b918115610fd6576111909309151590610e3756fea26469706673582212208152e59bfeea61f346f507ef20162903b8b9f26110bf56f569fa8922f2a16dbe64736f6c63430008170033",
  "devdoc": {
    "errors": {
      "EthTransferFailed()": [
        {
          "details": "Eth transfer failed. The target fallback may have reverted."
        }
      ],
      "InconsistentFee()": [
        {
          "details": "Fees are specified but FeeTaker is not set as a receiver."
        }
      ],
      "OnlyLimitOrderProtocol()": [
        {
          "details": "The caller is not the limit order protocol contract."
        }
      ],
      "OnlyWhitelistOrAccessToken()": [
        {
          "details": "The taker is not whitelisted and does not have access token."
        }
      ],
      "OwnableInvalidOwner(address)": [
        {
          "details": "The owner is not a valid owner account. (eg. `address(0)`)"
        }
      ],
      "OwnableUnauthorizedAccount(address)": [
        {
          "details": "The caller account is not authorized to perform an operation."
        }
      ]
    },
    "kind": "dev",
    "methods": {
      "constructor": {
        "params": {
          "accessToken": "Contract address whose tokens allow filling limit orders with a fee for resolvers that are outside the whitelist.",
          "limitOrderProtocol": "The limit order protocol contract.",
          "owner": "The owner of the contract.",
          "weth": "The WETH address."
        }
      },
      "getMakingAmount((uint256,uint256,uint256,uint256,uint256,uint256,uint256,uint256),bytes,bytes32,address,uint256,uint256,bytes)": {
        "params": {
          "extension": "Order extension data",
          "extraData": "Extra data",
          "order": "Order being processed",
          "orderHash": "Hash of the order being processed",
          "remainingMakingAmount": "Order remaining making amount",
          "taker": "Taker address",
          "takingAmount": "Actual taking amount"
        }
      },
      "getTakingAmount((uint256,uint256,uint256,uint256,uint256,uint256,uint256,uint256),bytes,bytes32,address,uint256,uint256,bytes)": {
        "params": {
          "extension": "Order extension data",
          "extraData": "Extra data",
          "makingAmount": "Actual taking amount",
          "order": "Order being processed",
          "orderHash": "Hash of the order being processed",
          "remainingMakingAmount": "Order remaining making amount",
          "taker": "Taker address"
        }
      },
      "owner()": {
        "details": "Returns the address of the current owner."
      },
      "renounceOwnership()": {
        "details": "Leaves the contract without owner. It will not be possible to call `onlyOwner` functions. Can only be called by the current owner. NOTE: Renouncing ownership will leave the contract without an owner, thereby disabling any functionality that is only available to the owner."
      },
      "rescueFunds(address,uint256)": {
        "params": {
          "amount": "amount to retrieve",
          "token": "ERC20 token to retrieve"
        }
      },
      "transferOwnership(address)": {
        "details": "Transfers ownership of the contract to a new account (`newOwner`). Can only be called by the current owner."
      }
    },
    "title": "Simple Settlement contract",
    "version": 1
  },
  "userdoc": {
    "kind": "user",
    "methods": {
      "constructor": {
        "notice": "Initializes the contract."
      },
      "getMakingAmount((uint256,uint256,uint256,uint256,uint256,uint256,uint256,uint256),bytes,bytes32,address,uint256,uint256,bytes)": {
        "notice": "View method that gets called to determine the actual making amount"
      },
      "getTakingAmount((uint256,uint256,uint256,uint256,uint256,uint256,uint256,uint256),bytes,bytes32,address,uint256,uint256,bytes)": {
        "notice": "View method that gets called to determine the actual making amount"
      },
      "postInteraction((uint256,uint256,uint256,uint256,uint256,uint256,uint256,uint256),bytes,bytes32,address,uint256,uint256,uint256,bytes)": {
        "notice": "See {IPostInteraction-postInteraction}."
      },
      "rescueFunds(address,uint256)": {
        "notice": "Retrieves funds accidently sent directly to the contract address"
      }
    },
    "notice": "Contract to execute limit orders settlement, created by Fusion mode.",
    "version": 1
  },
  "storageLayout": {
    "storage": [
      {
        "astId": 7351,
        "contract": "contracts/SimpleSettlement.sol:SimpleSettlement",
        "label": "_owner",
        "offset": 0,
        "slot": "0",
        "type": "t_address"
      }
    ],
    "types": {
      "t_address": {
        "encoding": "inplace",
        "label": "address",
        "numberOfBytes": "20"
      }
    }
  }
}